{
  "_format": "hh-sol-artifact-1",
  "contractName": "LiquidityPool",
  "sourceName": "contracts/LiquidityPool.sol",
  "abi": [
    {
      "inputs": [
        {
          "internalType": "address",
          "name": "_usdcToken",
          "type": "address"
        },
        {
          "internalType": "address",
          "name": "_bltm",
          "type": "address"
        },
        {
          "internalType": "uint256",
          "name": "_exchangeRate",
          "type": "uint256"
        }
      ],
      "stateMutability": "nonpayable",
      "type": "constructor"
    },
    {
      "inputs": [],
      "name": "AccessControlBadConfirmation",
      "type": "error"
    },
    {
      "inputs": [
        {
          "internalType": "address",
          "name": "account",
          "type": "address"
        },
        {
          "internalType": "bytes32",
          "name": "neededRole",
          "type": "bytes32"
        }
      ],
      "name": "AccessControlUnauthorizedAccount",
      "type": "error"
    },
    {
      "anonymous": false,
      "inputs": [
        {
          "indexed": true,
          "internalType": "bytes32",
          "name": "role",
          "type": "bytes32"
        },
        {
          "indexed": true,
          "internalType": "bytes32",
          "name": "previousAdminRole",
          "type": "bytes32"
        },
        {
          "indexed": true,
          "internalType": "bytes32",
          "name": "newAdminRole",
          "type": "bytes32"
        }
      ],
      "name": "RoleAdminChanged",
      "type": "event"
    },
    {
      "anonymous": false,
      "inputs": [
        {
          "indexed": true,
          "internalType": "bytes32",
          "name": "role",
          "type": "bytes32"
        },
        {
          "indexed": true,
          "internalType": "address",
          "name": "account",
          "type": "address"
        },
        {
          "indexed": true,
          "internalType": "address",
          "name": "sender",
          "type": "address"
        }
      ],
      "name": "RoleGranted",
      "type": "event"
    },
    {
      "anonymous": false,
      "inputs": [
        {
          "indexed": true,
          "internalType": "bytes32",
          "name": "role",
          "type": "bytes32"
        },
        {
          "indexed": true,
          "internalType": "address",
          "name": "account",
          "type": "address"
        },
        {
          "indexed": true,
          "internalType": "address",
          "name": "sender",
          "type": "address"
        }
      ],
      "name": "RoleRevoked",
      "type": "event"
    },
    {
      "inputs": [],
      "name": "DEFAULT_ADMIN_ROLE",
      "outputs": [
        {
          "internalType": "bytes32",
          "name": "",
          "type": "bytes32"
        }
      ],
      "stateMutability": "view",
      "type": "function"
    },
    {
      "inputs": [],
      "name": "OWNER_ROLE",
      "outputs": [
        {
          "internalType": "bytes32",
          "name": "",
          "type": "bytes32"
        }
      ],
      "stateMutability": "view",
      "type": "function"
    },
    {
      "inputs": [],
      "name": "bltm",
      "outputs": [
        {
          "internalType": "contract BLTM",
          "name": "",
          "type": "address"
        }
      ],
      "stateMutability": "view",
      "type": "function"
    },
    {
      "inputs": [
        {
          "internalType": "uint256",
          "name": "amount",
          "type": "uint256"
        }
      ],
      "name": "depositUSDC",
      "outputs": [],
      "stateMutability": "nonpayable",
      "type": "function"
    },
    {
      "inputs": [],
      "name": "exchangeRate",
      "outputs": [
        {
          "internalType": "uint256",
          "name": "",
          "type": "uint256"
        }
      ],
      "stateMutability": "view",
      "type": "function"
    },
    {
      "inputs": [
        {
          "internalType": "bytes32",
          "name": "role",
          "type": "bytes32"
        }
      ],
      "name": "getRoleAdmin",
      "outputs": [
        {
          "internalType": "bytes32",
          "name": "",
          "type": "bytes32"
        }
      ],
      "stateMutability": "view",
      "type": "function"
    },
    {
      "inputs": [
        {
          "internalType": "bytes32",
          "name": "role",
          "type": "bytes32"
        },
        {
          "internalType": "address",
          "name": "account",
          "type": "address"
        }
      ],
      "name": "grantRole",
      "outputs": [],
      "stateMutability": "nonpayable",
      "type": "function"
    },
    {
      "inputs": [
        {
          "internalType": "bytes32",
          "name": "role",
          "type": "bytes32"
        },
        {
          "internalType": "address",
          "name": "account",
          "type": "address"
        }
      ],
      "name": "hasRole",
      "outputs": [
        {
          "internalType": "bool",
          "name": "",
          "type": "bool"
        }
      ],
      "stateMutability": "view",
      "type": "function"
    },
    {
      "inputs": [
        {
          "internalType": "bytes32",
          "name": "role",
          "type": "bytes32"
        },
        {
          "internalType": "address",
          "name": "callerConfirmation",
          "type": "address"
        }
      ],
      "name": "renounceRole",
      "outputs": [],
      "stateMutability": "nonpayable",
      "type": "function"
    },
    {
      "inputs": [
        {
          "internalType": "bytes32",
          "name": "role",
          "type": "bytes32"
        },
        {
          "internalType": "address",
          "name": "account",
          "type": "address"
        }
      ],
      "name": "revokeRole",
      "outputs": [],
      "stateMutability": "nonpayable",
      "type": "function"
    },
    {
      "inputs": [
        {
          "internalType": "bytes4",
          "name": "interfaceId",
          "type": "bytes4"
        }
      ],
      "name": "supportsInterface",
      "outputs": [
        {
          "internalType": "bool",
          "name": "",
          "type": "bool"
        }
      ],
      "stateMutability": "view",
      "type": "function"
    },
    {
      "inputs": [
        {
          "internalType": "uint256",
          "name": "newRate",
          "type": "uint256"
        }
      ],
      "name": "updateExchangeRate",
      "outputs": [],
      "stateMutability": "nonpayable",
      "type": "function"
    },
    {
      "inputs": [],
      "name": "usdcToken",
      "outputs": [
        {
          "internalType": "contract IERC20",
          "name": "",
          "type": "address"
        }
      ],
      "stateMutability": "view",
      "type": "function"
    },
    {
      "inputs": [
        {
          "internalType": "uint256",
          "name": "amount",
          "type": "uint256"
        }
      ],
      "name": "withdrawERC20",
      "outputs": [],
      "stateMutability": "nonpayable",
      "type": "function"
    },
    {
      "inputs": [
        {
          "internalType": "uint256",
          "name": "amount",
          "type": "uint256"
        }
      ],
      "name": "withdrawUSDC",
      "outputs": [],
      "stateMutability": "nonpayable",
      "type": "function"
    }
  ],
  "bytecode": "0x608060405234801561001057600080fd5b506040516109d63803806109d683398101604081905261002f9161015f565b600180546001600160a01b038086166001600160a01b0319928316179092556002805492851692909116919091179055600381905561008e7fb19546dff01e856fb3f010c267a7b1c60363cf8a4664e21cc89c26224620214e33610097565b5050505061019b565b6000828152602081815260408083206001600160a01b038516845290915281205460ff16610139576000838152602081815260408083206001600160a01b03861684529091529020805460ff191660011790556100f13390565b6001600160a01b0316826001600160a01b0316847f2f8788117e7eff1d82e926ec794901d17c78024a50270940304540a733656f0d60405160405180910390a450600161013d565b5060005b92915050565b80516001600160a01b038116811461015a57600080fd5b919050565b60008060006060848603121561017457600080fd5b61017d84610143565b925061018b60208501610143565b9150604084015190509250925092565b61082c806101aa6000396000f3fe608060405234801561001057600080fd5b50600436106100f55760003560e01c8063a217fddf11610097578063d78276c611610066578063d78276c614610203578063db81f99b14610216578063e58378bb14610229578063f688bcfb1461025057600080fd5b8063a217fddf146101c2578063b6aecb43146101ca578063b9e205ae146101dd578063d547741f146101f057600080fd5b80632f2ff15d116100d35780632f2ff15d1461017e57806336568abe146101935780633ba0b9a9146101a657806391d14854146101af57600080fd5b806301ffc9a7146100fa57806311eac85514610122578063248a9ca31461014d575b600080fd5b61010d610108366004610707565b610263565b60405190151581526020015b60405180910390f35b600154610135906001600160a01b031681565b6040516001600160a01b039091168152602001610119565b61017061015b366004610738565b60009081526020819052604090206001015490565b604051908152602001610119565b61019161018c366004610751565b61029a565b005b6101916101a1366004610751565b6102c5565b61017060035481565b61010d6101bd366004610751565b6102fd565b610170600081565b600254610135906001600160a01b031681565b6101916101eb366004610738565b610326565b6101916101fe366004610751565b610356565b610191610211366004610738565b61037b565b610191610224366004610738565b610466565b6101707fb19546dff01e856fb3f010c267a7b1c60363cf8a4664e21cc89c26224620214e81565b61019161025e366004610738565b6104c7565b60006001600160e01b03198216637965db0b60e01b148061029457506301ffc9a760e01b6001600160e01b03198316145b92915050565b6000828152602081905260409020600101546102b5816105bc565b6102bf83836105c9565b50505050565b6001600160a01b03811633146102ee5760405163334bd91960e11b815260040160405180910390fd5b6102f8828261065b565b505050565b6000918252602082815260408084206001600160a01b0393909316845291905290205460ff1690565b7fb19546dff01e856fb3f010c267a7b1c60363cf8a4664e21cc89c26224620214e610350816105bc565b50600355565b600082815260208190526040902060010154610371816105bc565b6102bf838361065b565b60025460405163079cc67960e41b8152336004820152602481018390526001600160a01b03909116906379cc679090604401600060405180830381600087803b1580156103c757600080fd5b505af11580156103db573d6000803e3d6000fd5b505050506000600354826103ef919061078d565b60015460405163a9059cbb60e01b8152336004820152602481018390529192506001600160a01b03169063a9059cbb906044015b6020604051808303816000875af1158015610442573d6000803e3d6000fd5b505050506040513d601f19601f820116820180604052508101906102f891906107af565b7fb19546dff01e856fb3f010c267a7b1c60363cf8a4664e21cc89c26224620214e610490816105bc565b60015460405163a9059cbb60e01b8152336004820152602481018490526001600160a01b039091169063a9059cbb90604401610423565b6001546040516323b872dd60e01b8152336004820152306024820152604481018390526001600160a01b03909116906323b872dd906064016020604051808303816000875af115801561051e573d6000803e3d6000fd5b505050506040513d601f19601f8201168201806040525081019061054291906107af565b5060006003548261055391906107d1565b6002546040516340c10f1960e01b8152336004820152602481018390529192506001600160a01b0316906340c10f1990604401600060405180830381600087803b1580156105a057600080fd5b505af11580156105b4573d6000803e3d6000fd5b505050505050565b6105c681336106c6565b50565b60006105d583836102fd565b610653576000838152602081815260408083206001600160a01b03861684529091529020805460ff1916600117905561060b3390565b6001600160a01b0316826001600160a01b0316847f2f8788117e7eff1d82e926ec794901d17c78024a50270940304540a733656f0d60405160405180910390a4506001610294565b506000610294565b600061066783836102fd565b15610653576000838152602081815260408083206001600160a01b0386168085529252808320805460ff1916905551339286917ff6391f5c32d9c69d2a47ea670b442974b53935d1edc7fd64eb21e047a839171b9190a4506001610294565b6106d082826102fd565b6107035760405163e2517d3f60e01b81526001600160a01b03821660048201526024810183905260440160405180910390fd5b5050565b60006020828403121561071957600080fd5b81356001600160e01b03198116811461073157600080fd5b9392505050565b60006020828403121561074a57600080fd5b5035919050565b6000806040838503121561076457600080fd5b8235915060208301356001600160a01b038116811461078257600080fd5b809150509250929050565b6000826107aa57634e487b7160e01b600052601260045260246000fd5b500490565b6000602082840312156107c157600080fd5b8151801515811461073157600080fd5b808202811582820484141761029457634e487b7160e01b600052601160045260246000fdfea26469706673582212204758b4a3f6482614d7e873b9495f8a92c426563cec5883a3234954bd88bd140e64736f6c63430008160033",
  "linkReferences": {},
  "deployedLinkReferences": {}
}